{"abi":[{"type":"constructor","inputs":[{"name":"initialOwner","type":"address","internalType":"address"}],"stateMutability":"nonpayable"},{"type":"function","name":"_name","inputs":[],"outputs":[{"name":"","type":"string","internalType":"string"}],"stateMutability":"view"},{"type":"function","name":"_symbol","inputs":[],"outputs":[{"name":"","type":"string","internalType":"string"}],"stateMutability":"view"},{"type":"function","name":"allowance","inputs":[{"name":"owner","type":"address","internalType":"address"},{"name":"spender","type":"address","internalType":"address"}],"outputs":[{"name":"","type":"uint256","internalType":"uint256"}],"stateMutability":"view"},{"type":"function","name":"approve","inputs":[{"name":"spender","type":"address","internalType":"address"},{"name":"value","type":"uint256","internalType":"uint256"}],"outputs":[{"name":"","type":"bool","internalType":"bool"}],"stateMutability":"nonpayable"},{"type":"function","name":"balanceOf","inputs":[{"name":"account","type":"address","internalType":"address"}],"outputs":[{"name":"","type":"uint256","internalType":"uint256"}],"stateMutability":"view"},{"type":"function","name":"burn","inputs":[{"name":"_amount","type":"uint256","internalType":"uint256"}],"outputs":[],"stateMutability":"nonpayable"},{"type":"function","name":"decimals","inputs":[],"outputs":[{"name":"","type":"uint8","internalType":"uint8"}],"stateMutability":"view"},{"type":"function","name":"mint","inputs":[{"name":"_amount","type":"uint256","internalType":"uint256"}],"outputs":[],"stateMutability":"nonpayable"},{"type":"function","name":"name","inputs":[],"outputs":[{"name":"","type":"string","internalType":"string"}],"stateMutability":"view"},{"type":"function","name":"owner","inputs":[],"outputs":[{"name":"","type":"address","internalType":"address"}],"stateMutability":"view"},{"type":"function","name":"renounceOwnership","inputs":[],"outputs":[],"stateMutability":"nonpayable"},{"type":"function","name":"symbol","inputs":[],"outputs":[{"name":"","type":"string","internalType":"string"}],"stateMutability":"view"},{"type":"function","name":"totalSupply","inputs":[],"outputs":[{"name":"","type":"uint256","internalType":"uint256"}],"stateMutability":"view"},{"type":"function","name":"transfer","inputs":[{"name":"to","type":"address","internalType":"address"},{"name":"value","type":"uint256","internalType":"uint256"}],"outputs":[{"name":"","type":"bool","internalType":"bool"}],"stateMutability":"nonpayable"},{"type":"function","name":"transferFrom","inputs":[{"name":"from","type":"address","internalType":"address"},{"name":"to","type":"address","internalType":"address"},{"name":"value","type":"uint256","internalType":"uint256"}],"outputs":[{"name":"","type":"bool","internalType":"bool"}],"stateMutability":"nonpayable"},{"type":"function","name":"transferOwnership","inputs":[{"name":"newOwner","type":"address","internalType":"address"}],"outputs":[],"stateMutability":"nonpayable"},{"type":"event","name":"Approval","inputs":[{"name":"owner","type":"address","indexed":true,"internalType":"address"},{"name":"spender","type":"address","indexed":true,"internalType":"address"},{"name":"value","type":"uint256","indexed":false,"internalType":"uint256"}],"anonymous":false},{"type":"event","name":"Burn","inputs":[{"name":"amount","type":"uint256","indexed":true,"internalType":"uint256"}],"anonymous":false},{"type":"event","name":"Mint","inputs":[{"name":"amount","type":"uint256","indexed":true,"internalType":"uint256"}],"anonymous":false},{"type":"event","name":"OwnershipTransferred","inputs":[{"name":"previousOwner","type":"address","indexed":true,"internalType":"address"},{"name":"newOwner","type":"address","indexed":true,"internalType":"address"}],"anonymous":false},{"type":"event","name":"Transfer","inputs":[{"name":"from","type":"address","indexed":true,"internalType":"address"},{"name":"to","type":"address","indexed":true,"internalType":"address"},{"name":"value","type":"uint256","indexed":false,"internalType":"uint256"}],"anonymous":false},{"type":"error","name":"ERC20InsufficientAllowance","inputs":[{"name":"spender","type":"address","internalType":"address"},{"name":"allowance","type":"uint256","internalType":"uint256"},{"name":"needed","type":"uint256","internalType":"uint256"}]},{"type":"error","name":"ERC20InsufficientBalance","inputs":[{"name":"sender","type":"address","internalType":"address"},{"name":"balance","type":"uint256","internalType":"uint256"},{"name":"needed","type":"uint256","internalType":"uint256"}]},{"type":"error","name":"ERC20InvalidApprover","inputs":[{"name":"approver","type":"address","internalType":"address"}]},{"type":"error","name":"ERC20InvalidReceiver","inputs":[{"name":"receiver","type":"address","internalType":"address"}]},{"type":"error","name":"ERC20InvalidSender","inputs":[{"name":"sender","type":"address","internalType":"address"}]},{"type":"error","name":"ERC20InvalidSpender","inputs":[{"name":"spender","type":"address","internalType":"address"}]},{"type":"error","name":"OwnableInvalidOwner","inputs":[{"name":"owner","type":"address","internalType":"address"}]},{"type":"error","name":"OwnableUnauthorizedAccount","inputs":[{"name":"account","type":"address","internalType":"address"}]}],"bytecode":{"object":"0x60c06040526009608090815268263ab1b0b9a1b7b4b760b91b60a05260069061002890826102d3565b506040805180820190915260038152624c534360e81b602082015260079061005090826102d3565b5034801561005c575f5ffd5b50604051610dec380380610dec83398101604081905261007b9161038d565b80600680546100899061024f565b80601f01602080910402602001604051908101604052809291908181526020018280546100b59061024f565b80156101005780601f106100d757610100808354040283529160200191610100565b820191905f5260205f20905b8154815290600101906020018083116100e357829003601f168201915b5050505050600780546101129061024f565b80601f016020809104026020016040519081016040528092919081815260200182805461013e9061024f565b80156101895780601f1061016057610100808354040283529160200191610189565b820191905f5260205f20905b81548152906001019060200180831161016c57829003601f168201915b5050505050816003908161019d91906102d3565b5060046101aa82826102d3565b5050506001600160a01b0381166101da57604051631e4fbdf760e01b81525f600482015260240160405180910390fd5b6101e3816101ea565b50506103ba565b600580546001600160a01b038381166001600160a01b0319831681179093556040519116919082907f8be0079c531659141344cd1fd0a4f28419497f9722a3daafe3b4186f6b6457e0905f90a35050565b634e487b7160e01b5f52604160045260245ffd5b600181811c9082168061026357607f821691505b60208210810361028157634e487b7160e01b5f52602260045260245ffd5b50919050565b601f8211156102ce57805f5260205f20601f840160051c810160208510156102ac5750805b601f840160051c820191505b818110156102cb575f81556001016102b8565b50505b505050565b81516001600160401b038111156102ec576102ec61023b565b610300816102fa845461024f565b84610287565b6020601f821160018114610332575f831561031b5750848201515b5f19600385901b1c1916600184901b1784556102cb565b5f84815260208120601f198516915b828110156103615787850151825560209485019460019092019101610341565b508482101561037e57868401515f19600387901b60f8161c191681555b50505050600190811b01905550565b5f6020828403121561039d575f5ffd5b81516001600160a01b03811681146103b3575f5ffd5b9392505050565b610a25806103c75f395ff3fe608060405234801561000f575f5ffd5b50600436106100fb575f3560e01c80638da5cb5b11610093578063b09f126611610063578063b09f126614610202578063d28d88521461020a578063dd62ed3e14610212578063f2fde38b1461024a575f5ffd5b80638da5cb5b146101b957806395d89b41146101d4578063a0712d68146101dc578063a9059cbb146101ef575f5ffd5b8063313ce567116100ce578063313ce5671461016557806342966c681461017457806370a0823114610189578063715018a6146101b1575f5ffd5b806306fdde03146100ff578063095ea7b31461011d57806318160ddd1461014057806323b872dd14610152575b5f5ffd5b61010761025d565b604051610114919061087e565b60405180910390f35b61013061012b3660046108ce565b6102ed565b6040519015158152602001610114565b6002545b604051908152602001610114565b6101306101603660046108f6565b610306565b60405160128152602001610114565b610187610182366004610930565b610329565b005b610144610197366004610947565b6001600160a01b03165f9081526020819052604090205490565b610187610368565b6005546040516001600160a01b039091168152602001610114565b61010761037b565b6101876101ea366004610930565b61038a565b6101306101fd3660046108ce565b6103c9565b6101076103d6565b610107610462565b610144610220366004610967565b6001600160a01b039182165f90815260016020908152604080832093909416825291909152205490565b610187610258366004610947565b61046f565b60606003805461026c90610998565b80601f016020809104026020016040519081016040528092919081815260200182805461029890610998565b80156102e35780601f106102ba576101008083540402835291602001916102e3565b820191905f5260205f20905b8154815290600101906020018083116102c657829003601f168201915b5050505050905090565b5f336102fa8185856104b1565b60019150505b92915050565b5f336103138582856104c3565b61031e85858561053f565b506001949350505050565b61033161059c565b61033b33826105c9565b60405181907fb90306ad06b2a6ff86ddc9327db583062895ef6540e62dc50add009db5b356eb905f90a250565b61037061059c565b6103795f610601565b565b60606004805461026c90610998565b61039261059c565b61039c3382610652565b60405181907f07883703ed0e86588a40d76551c92f8a4b329e3bf19765e0e6749473c1a84665905f90a250565b5f336102fa81858561053f565b600780546103e390610998565b80601f016020809104026020016040519081016040528092919081815260200182805461040f90610998565b801561045a5780601f106104315761010080835404028352916020019161045a565b820191905f5260205f20905b81548152906001019060200180831161043d57829003601f168201915b505050505081565b600680546103e390610998565b61047761059c565b6001600160a01b0381166104a557604051631e4fbdf760e01b81525f60048201526024015b60405180910390fd5b6104ae81610601565b50565b6104be8383836001610686565b505050565b6001600160a01b038381165f908152600160209081526040808320938616835292905220545f19811015610539578181101561052b57604051637dc7a0d960e11b81526001600160a01b0384166004820152602481018290526044810183905260640161049c565b61053984848484035f610686565b50505050565b6001600160a01b03831661056857604051634b637e8f60e11b81525f600482015260240161049c565b6001600160a01b0382166105915760405163ec442f0560e01b81525f600482015260240161049c565b6104be838383610758565b6005546001600160a01b031633146103795760405163118cdaa760e01b815233600482015260240161049c565b6001600160a01b0382166105f257604051634b637e8f60e11b81525f600482015260240161049c565b6105fd825f83610758565b5050565b600580546001600160a01b038381166001600160a01b0319831681179093556040519116919082907f8be0079c531659141344cd1fd0a4f28419497f9722a3daafe3b4186f6b6457e0905f90a35050565b6001600160a01b03821661067b5760405163ec442f0560e01b81525f600482015260240161049c565b6105fd5f8383610758565b6001600160a01b0384166106af5760405163e602df0560e01b81525f600482015260240161049c565b6001600160a01b0383166106d857604051634a1406b160e11b81525f600482015260240161049c565b6001600160a01b038085165f908152600160209081526040808320938716835292905220829055801561053957826001600160a01b0316846001600160a01b03167f8c5be1e5ebec7d5bd14f71427d1e84f3dd0314c0f7b2291e5b200ac8c7c3b9258460405161074a91815260200190565b60405180910390a350505050565b6001600160a01b038316610782578060025f82825461077791906109d0565b909155506107f29050565b6001600160a01b0383165f90815260208190526040902054818110156107d45760405163391434e360e21b81526001600160a01b0385166004820152602481018290526044810183905260640161049c565b6001600160a01b0384165f9081526020819052604090209082900390555b6001600160a01b03821661080e5760028054829003905561082c565b6001600160a01b0382165f9081526020819052604090208054820190555b816001600160a01b0316836001600160a01b03167fddf252ad1be2c89b69c2b068fc378daa952ba7f163c4a11628f55a4df523b3ef8360405161087191815260200190565b60405180910390a3505050565b602081525f82518060208401528060208501604085015e5f604082850101526040601f19601f83011684010191505092915050565b80356001600160a01b03811681146108c9575f5ffd5b919050565b5f5f604083850312156108df575f5ffd5b6108e8836108b3565b946020939093013593505050565b5f5f5f60608486031215610908575f5ffd5b610911846108b3565b925061091f602085016108b3565b929592945050506040919091013590565b5f60208284031215610940575f5ffd5b5035919050565b5f60208284031215610957575f5ffd5b610960826108b3565b9392505050565b5f5f60408385031215610978575f5ffd5b610981836108b3565b915061098f602084016108b3565b90509250929050565b600181811c908216806109ac57607f821691505b6020821081036109ca57634e487b7160e01b5f52602260045260245ffd5b50919050565b8082018082111561030057634e487b7160e01b5f52601160045260245ffdfea264697066735822122019c9c1e2bd85398ade343877b203bedf2f33f8f453166a1de0f05a81b85594a364736f6c634300081c0033","linkReferences":{}},"methodIdentifiers":{"_name()":"d28d8852","_symbol()":"b09f1266","allowance(address,address)":"dd62ed3e","approve(address,uint256)":"095ea7b3","balanceOf(address)":"70a08231","burn(uint256)":"42966c68","decimals()":"313ce567","mint(uint256)":"a0712d68","name()":"06fdde03","owner()":"8da5cb5b","renounceOwnership()":"715018a6","symbol()":"95d89b41","totalSupply()":"18160ddd","transfer(address,uint256)":"a9059cbb","transferFrom(address,address,uint256)":"23b872dd","transferOwnership(address)":"f2fde38b"},"id":6}